{
  "_format": "hh-sol-artifact-1",
  "contractName": "Luckin",
  "sourceName": "contracts/Luckin.sol",
  "abi": [
    {
      "anonymous": false,
      "inputs": [
        {
          "indexed": false,
          "internalType": "address",
          "name": "buyer",
          "type": "address"
        },
        {
          "indexed": false,
          "internalType": "uint256",
          "name": "coffeeId",
          "type": "uint256"
        }
      ],
      "name": "coffeePurchased",
      "type": "event"
    },
    {
      "inputs": [],
      "name": "buyCoffee",
      "outputs": [],
      "stateMutability": "nonpayable",
      "type": "function"
    },
    {
      "inputs": [],
      "name": "haveSpareCoffee",
      "outputs": [
        {
          "internalType": "bool",
          "name": "",
          "type": "bool"
        }
      ],
      "stateMutability": "view",
      "type": "function"
    },
    {
      "inputs": [],
      "name": "makeCoffee",
      "outputs": [],
      "stateMutability": "nonpayable",
      "type": "function"
    }
  ],
  "bytecode": "0x608060405234801561001057600080fd5b50610371806100206000396000f3fe608060405234801561001057600080fd5b50600436106100415760003560e01c80632fdd40991461004657806351075d4014610050578063bf165d181461006e575b600080fd5b61004e610078565b005b610058610092565b60405161006591906101a9565b60405180910390f35b6100766100a0565b005b6001600081548092919061008b906101fd565b9190505550565b600060015460025410905090565b600154600254106100e6576040517f08c379a00000000000000000000000000000000000000000000000000000000081526004016100dd906102a2565b60405180910390fd5b33600080600254815260200190815260200160002060006101000a81548173ffffffffffffffffffffffffffffffffffffffff021916908373ffffffffffffffffffffffffffffffffffffffff1602179055507fd72bba695b34e86be164cae7a9fd78f4de9ea5184c60694928be2f4a81840d6e3360025460405161016c929190610312565b60405180910390a160026000815480929190610187906101fd565b9190505550565b60008115159050919050565b6101a38161018e565b82525050565b60006020820190506101be600083018461019a565b92915050565b7f4e487b7100000000000000000000000000000000000000000000000000000000600052601160045260246000fd5b6000819050919050565b6000610208826101f3565b91507fffffffffffffffffffffffffffffffffffffffffffffffffffffffffffffffff820361023a576102396101c4565b5b600182019050919050565b600082825260208201905092915050565b7f4e6f206d6f726520636f66666565212121000000000000000000000000000000600082015250565b600061028c601183610245565b915061029782610256565b602082019050919050565b600060208201905081810360008301526102bb8161027f565b9050919050565b600073ffffffffffffffffffffffffffffffffffffffff82169050919050565b60006102ed826102c2565b9050919050565b6102fd816102e2565b82525050565b61030c816101f3565b82525050565b600060408201905061032760008301856102f4565b6103346020830184610303565b939250505056fea26469706673582212205b100e9a680ceee9a75c39e1d5dbfc28324704d105a5b4acb828f768784d93d964736f6c63430008140033",
  "linkReferences": {},
  "deployedLinkReferences": {}
}